{
  "contractName": "CrowdFundingWithDeadline",
  "abi": [
    {
      "constant": true,
      "inputs": [],
      "name": "name",
      "outputs": [
        {
          "name": "",
          "type": "string"
        }
      ],
      "payable": false,
      "stateMutability": "view",
      "type": "function"
    },
    {
      "constant": true,
      "inputs": [],
      "name": "beneficiary",
      "outputs": [
        {
          "name": "",
          "type": "address"
        }
      ],
      "payable": false,
      "stateMutability": "view",
      "type": "function"
    },
    {
      "constant": true,
      "inputs": [
        {
          "name": "",
          "type": "address"
        }
      ],
      "name": "amounts",
      "outputs": [
        {
          "name": "",
          "type": "uint256"
        }
      ],
      "payable": false,
      "stateMutability": "view",
      "type": "function"
    },
    {
      "constant": true,
      "inputs": [],
      "name": "fundingDeadline",
      "outputs": [
        {
          "name": "",
          "type": "uint256"
        }
      ],
      "payable": false,
      "stateMutability": "view",
      "type": "function"
    },
    {
      "constant": true,
      "inputs": [],
      "name": "collected",
      "outputs": [
        {
          "name": "",
          "type": "bool"
        }
      ],
      "payable": false,
      "stateMutability": "view",
      "type": "function"
    },
    {
      "constant": true,
      "inputs": [],
      "name": "targetAmount",
      "outputs": [
        {
          "name": "",
          "type": "uint256"
        }
      ],
      "payable": false,
      "stateMutability": "view",
      "type": "function"
    },
    {
      "constant": true,
      "inputs": [],
      "name": "state",
      "outputs": [
        {
          "name": "",
          "type": "uint8"
        }
      ],
      "payable": false,
      "stateMutability": "view",
      "type": "function"
    },
    {
      "constant": true,
      "inputs": [],
      "name": "totalCollected",
      "outputs": [
        {
          "name": "",
          "type": "uint256"
        }
      ],
      "payable": false,
      "stateMutability": "view",
      "type": "function"
    },
    {
      "inputs": [
        {
          "name": "contractName",
          "type": "string"
        },
        {
          "name": "targetAmountETH",
          "type": "uint256"
        },
        {
          "name": "durationInMin",
          "type": "uint256"
        },
        {
          "name": "beneficiaryAddress",
          "type": "address"
        }
      ],
      "payable": false,
      "stateMutability": "nonpayable",
      "type": "constructor"
    },
    {
      "anonymous": false,
      "inputs": [
        {
          "indexed": false,
          "name": "addr",
          "type": "address"
        },
        {
          "indexed": false,
          "name": "totalCollected",
          "type": "uint256"
        },
        {
          "indexed": false,
          "name": "succeeded",
          "type": "bool"
        }
      ],
      "name": "CampaignFinished",
      "type": "event"
    },
    {
      "constant": false,
      "inputs": [],
      "name": "contribute",
      "outputs": [],
      "payable": true,
      "stateMutability": "payable",
      "type": "function"
    },
    {
      "constant": false,
      "inputs": [],
      "name": "finishCrowdFunding",
      "outputs": [],
      "payable": false,
      "stateMutability": "nonpayable",
      "type": "function"
    },
    {
      "constant": false,
      "inputs": [],
      "name": "collect",
      "outputs": [],
      "payable": false,
      "stateMutability": "nonpayable",
      "type": "function"
    },
    {
      "constant": false,
      "inputs": [],
      "name": "withdraw",
      "outputs": [],
      "payable": false,
      "stateMutability": "nonpayable",
      "type": "function"
    },
    {
      "constant": true,
      "inputs": [],
      "name": "beforeDeadline",
      "outputs": [
        {
          "name": "",
          "type": "bool"
        }
      ],
      "payable": false,
      "stateMutability": "view",
      "type": "function"
    }
  ],
  "bytecode": "0x60806040523480156200001157600080fd5b5060405162000efa38038062000efa8339810180604052810190808051820192919060200180519060200190929190805190602001909291908051906020019092919050505083600090805190602001906200006f92919062000260565b5073__Utils_________________________________63d8916bb9846040518263ffffffff167c01000000000000000000000000000000000000000000000000000000000281526004018082815260200191505060206040518083038186803b158015620000dc57600080fd5b505af4158015620000f1573d6000803e3d6000fd5b505050506040513d60208110156200010857600080fd5b810190808051906020019092919050505060018190555073__Utils_________________________________63529b380f836040518263ffffffff167c01000000000000000000000000000000000000000000000000000000000281526004018082815260200191505060206040518083038186803b1580156200018b57600080fd5b505af4158015620001a0573d6000803e3d6000fd5b505050506040513d6020811015620001b757600080fd5b8101908080519060200190929190505050620001e162000258640100000000026401000000009004565b0160028190555080600360006101000a81548173ffffffffffffffffffffffffffffffffffffffff021916908373ffffffffffffffffffffffffffffffffffffffff1602179055506000600360146101000a81548160ff021916908360038111156200024957fe5b0217905550505050506200030f565b600042905090565b828054600181600116156101000203166002900490600052602060002090601f016020900481019282601f10620002a357805160ff1916838001178555620002d4565b82800160010185558215620002d4579182015b82811115620002d3578251825591602001919060010190620002b6565b5b509050620002e39190620002e7565b5090565b6200030c91905b8082111562000308576000816000905550600101620002ee565b5090565b90565b610bdb806200031f6000396000f3006080604052600436106100c5576000357c0100000000000000000000000000000000000000000000000000000000900463ffffffff16806306fdde03146100ca578063083dca111461015a57806338af3eed146101715780633ccfd60b146101c857806355a3b2c1146101df57806368bc004114610236578063796b23bb1461026557806384bcefd414610290578063953b8fb8146102bf578063c19d93fb146102ea578063d7bb99ba14610323578063e29eb8361461032d578063e522538114610358575b600080fd5b3480156100d657600080fd5b506100df61036f565b6040518080602001828103825283818151815260200191508051906020019080838360005b8381101561011f578082015181840152602081019050610104565b50505050905090810190601f16801561014c5780820380516001836020036101000a031916815260200191505b509250505060405180910390f35b34801561016657600080fd5b5061016f61040d565b005b34801561017d57600080fd5b506101866105f2565b604051808273ffffffffffffffffffffffffffffffffffffffff1673ffffffffffffffffffffffffffffffffffffffff16815260200191505060405180910390f35b3480156101d457600080fd5b506101dd610618565b005b3480156101eb57600080fd5b50610220600480360381019080803573ffffffffffffffffffffffffffffffffffffffff16906020019092919050505061087a565b6040518082815260200191505060405180910390f35b34801561024257600080fd5b5061024b610892565b604051808215151515815260200191505060405180910390f35b34801561027157600080fd5b5061027a6108a5565b6040518082815260200191505060405180910390f35b34801561029c57600080fd5b506102a56108ab565b604051808215151515815260200191505060405180910390f35b3480156102cb57600080fd5b506102d46108be565b6040518082815260200191505060405180910390f35b3480156102f657600080fd5b506102ff6108c4565b6040518082600381111561030f57fe5b60ff16815260200191505060405180910390f35b61032b6108d7565b005b34801561033957600080fd5b50610342610a55565b6040518082815260200191505060405180910390f35b34801561036457600080fd5b5061036d610a5b565b005b60008054600181600116156101000203166002900480601f0160208091040260200160405190810160405280929190818152602001828054600181600116156101000203166002900480156104055780601f106103da57610100808354040283529160200191610405565b820191906000526020600020905b8154815290600101906020018083116103e857829003601f168201915b505050505081565b600080600381111561041b57fe5b600360149054906101000a900460ff16600381111561043657fe5b1415156104ab576040517f08c379a000000000000000000000000000000000000000000000000000000000815260040180806020018281038252600d8152602001807f496e76616c69642073746174650000000000000000000000000000000000000081525060200191505060405180910390fd5b6104b3610892565b151515610503576040517f08c379a0000000000000000000000000000000000000000000000000000000008152600401808060200182810382526000815260200160200191505060405180910390fd5b600560009054906101000a900460ff161515610542576001600360146101000a81548160ff0219169083600381111561053857fe5b0217905550610567565b6002600360146101000a81548160ff0219169083600381111561056157fe5b02179055505b7f6fa7e87ebbd87ed4f1c40bba63144f68fd2bb022fb748ab3b61b5411c39bd47430600654600560009054906101000a900460ff16604051808473ffffffffffffffffffffffffffffffffffffffff1673ffffffffffffffffffffffffffffffffffffffff16815260200183815260200182151515158152602001935050505060405180910390a150565b600360009054906101000a900473ffffffffffffffffffffffffffffffffffffffff1681565b6000600180600381111561062857fe5b600360149054906101000a900460ff16600381111561064357fe5b1415156106b8576040517f08c379a000000000000000000000000000000000000000000000000000000000815260040180806020018281038252600d8152602001807f496e76616c69642073746174650000000000000000000000000000000000000081525060200191505060405180910390fd5b6000600460003373ffffffffffffffffffffffffffffffffffffffff1673ffffffffffffffffffffffffffffffffffffffff1681526020019081526020016000205411151561076f576040517f08c379a00000000000000000000000000000000000000000000000000000000081526004018080602001828103825260178152602001807f4e6f7468696e672077617320636f6e747269627574656400000000000000000081525060200191505060405180910390fd5b600460003373ffffffffffffffffffffffffffffffffffffffff1673ffffffffffffffffffffffffffffffffffffffff1681526020019081526020016000205491506000600460003373ffffffffffffffffffffffffffffffffffffffff1673ffffffffffffffffffffffffffffffffffffffff168152602001908152602001600020819055503373ffffffffffffffffffffffffffffffffffffffff166108fc839081150290604051600060405180830381858888f1935050505015156108765781600460003373ffffffffffffffffffffffffffffffffffffffff1673ffffffffffffffffffffffffffffffffffffffff168152602001908152602001600020819055505b5050565b60046020528060005260406000206000915090505481565b600060025461089f610ba7565b10905090565b60025481565b600560009054906101000a900460ff1681565b60015481565b600360149054906101000a900460ff1681565b60008060038111156108e557fe5b600360149054906101000a900460ff16600381111561090057fe5b141515610975576040517f08c379a000000000000000000000000000000000000000000000000000000000815260040180806020018281038252600d8152602001807f496e76616c69642073746174650000000000000000000000000000000000000081525060200191505060405180910390fd5b61097d610892565b15156109cc576040517f08c379a0000000000000000000000000000000000000000000000000000000008152600401808060200182810382526000815260200160200191505060405180910390fd5b34600460003373ffffffffffffffffffffffffffffffffffffffff1673ffffffffffffffffffffffffffffffffffffffff1681526020019081526020016000206000828254019250508190555034600660008282540192505081905550600154600654101515610a52576001600560006101000a81548160ff0219169083151502179055505b50565b60065481565b6002806003811115610a6957fe5b600360149054906101000a900460ff166003811115610a8457fe5b141515610af9576040517f08c379a000000000000000000000000000000000000000000000000000000000815260040180806020018281038252600d8152602001807f496e76616c69642073746174650000000000000000000000000000000000000081525060200191505060405180910390fd5b600360009054906101000a900473ffffffffffffffffffffffffffffffffffffffff1673ffffffffffffffffffffffffffffffffffffffff166108fc6006549081150290604051600060405180830381858888f1935050505015610b7f5760038060146101000a81548160ff02191690836003811115610b7557fe5b0217905550610ba4565b6001600360146101000a81548160ff02191690836003811115610b9e57fe5b02179055505b50565b6000429050905600a165627a7a7230582026137d9ba2f6045c8cfb81f75f74813630afa63c61a8e35864b87416979e20bb0029",
  "source": "// SPDX-License-Identifier: MIT\npragma solidity >=0.4.22 <0.9.0;\n\nimport \"./Utils.sol\";\n\ncontract CrowdFundingWithDeadline {\n\n    using Utils for *; // Using Utils library for all types.\n\n    enum State { Ongoing, Failed, Succeeded, PaidOut }\n\n    event CampaignFinished (\n        address addr, \n        uint totalCollected,\n        bool succeeded\n    );\n\n    string public name;\n    uint public targetAmount; \n    uint public fundingDeadline; // Number of secs from Jan 1, 1970 \n    address public beneficiary; \n    State public state;\n\n    mapping(address => uint) public amounts;\n    // Tracks how much funds each address contributes to a campaign. used in Contribute() \n    bool public collected; \n    uint public totalCollected;\n\n    modifier inState(State expectedState) {\n        require(state == expectedState, \"Invalid state\");\n        _;\n        // Expected state is argument and it's using the enum State so need State keyword in argument too. \n    }\n\n    constructor(\n        // Initializing the smart contract, can only be executed once, is optional\n        string memory contractName,\n        uint targetAmountETH,\n        uint durationInMin, \n        address beneficiaryAddress\n    )\n    {\n        name = contractName; // so now can do contract.name.call() in testing to access this which was initialized in the constructor\n        targetAmount = Utils.etherToWei(targetAmountETH); // converts to Wei from Eth\n        fundingDeadline = currentTime() + Utils.minutesToSeconds(durationInMin);\n        // converts to seconds\n        // 0 + 10 (we created a contract with 10 mins in testing) * 60\n        beneficiary = beneficiaryAddress;\n        state = State.Ongoing;\n        // if hadn't initialized above, would be: State state = State.Ongoing;\n    }\n\n    function contribute() public payable inState(State.Ongoing) {\n        // It's payable because users should be able to send funds with this transaction. \n        // inState modifier is ensuring the contract is still in ongoing state, which means it can be contributed to.\n        require(beforeDeadline(), \"\");\n        amounts[msg.sender] += msg.value;\n        // Using mapping with msg.sender as the key and wei as the value (uint in wei)\n        // Since we use msg.sender and msg.value in this function, even though it's (), we're going to need to send address and value when testing. \n        totalCollected += msg.value;\n        if (totalCollected >= targetAmount) {\n            collected = true;\n        }\n    }\n\n    function currentTime() internal view returns(uint) {\n        return block.timestamp;\n        // returns the curent block time with the Now alias\n    }\n\n    function finishCrowdFunding() public inState(State.Ongoing) {\n        require(!beforeDeadline(), \"\");\n\n        if (!collected) {\n            state = State.Failed;\n        } else {\n            state = State.Succeeded;\n        }\n\n        emit CampaignFinished(this, totalCollected, collected); \n        // This keyword represents address of this contract. \n        // totalCollected represents amount of funds\n        // Collected is boolean. \n    }\n\n    function collect() public inState(State.Succeeded) {\n        if (beneficiary.send(totalCollected)) {\n            state = State.PaidOut;\n        } else {\n            state = State.Failed;\n        }\n    }\n\n    function withdraw() public inState(State.Failed) {\n        require(amounts[msg.sender] > 0, \"Nothing was contributed\"); // Only want addresses that have contributed to withdraw, stored this in amounts mapping. \n        uint contributed = amounts[msg.sender];\n        amounts[msg.sender] = 0;\n\n        if (!msg.sender.send(contributed)) {\n            amounts[msg.sender] = contributed;\n            // If the sending of funds to beneficiary fails, then we revert the amount the msg.sender has. \n        }\n    }\n\n\n    // Public means any other contract or outside address can call on this method \n\n    function beforeDeadline() public view returns(bool) {\n        return currentTime() < fundingDeadline;\n    }\n}",
  "sourcePath": "/Users/casperyonel/Documents/Projects/crowdfunding-project/contracts/CrowdFundingWithDeadline.sol",
  "compiler": {
    "name": "solc",
    "version": "0.4.25+commit.59dbf8f1.Emscripten.clang"
  },
  "schemaVersion": "2.0.2",
  "updatedAt": "2021-12-07T17:49:53.631Z"
}