{
  "contractName": "Utils",
  "abi": [
    {
      "constant": true,
      "inputs": [
        {
          "name": "sumInEth",
          "type": "uint256"
        }
      ],
      "name": "etherToWei",
      "outputs": [
        {
          "name": "",
          "type": "uint256"
        }
      ],
      "payable": false,
      "stateMutability": "pure",
      "type": "function"
    },
    {
      "constant": true,
      "inputs": [
        {
          "name": "timeInMin",
          "type": "uint256"
        }
      ],
      "name": "minutesToSeconds",
      "outputs": [
        {
          "name": "",
          "type": "uint256"
        }
      ],
      "payable": false,
      "stateMutability": "pure",
      "type": "function"
    }
  ],
  "bytecode": "0x610116610030600b82828239805160001a6073146000811461002057610022565bfe5b5030600052607381538281f30073000000000000000000000000000000000000000030146080604052600436106060576000357c0100000000000000000000000000000000000000000000000000000000900463ffffffff168063529b380f146065578063d8916bb9146097575b600080fd5b60816004803603810190808035906020019092919050505060c9565b6040518082815260200191505060405180910390f35b60b36004803603810190808035906020019092919050505060d6565b6040518082815260200191505060405180910390f35b6000603c82029050919050565b6000670de0b6b3a7640000820290509190505600a165627a7a723058203e045810db9c8b32575636497a18d9b0642bb38bb59d9de633704ae660c78ec20029",
  "source": "// SPDX-License-Identifier: MIT\npragma solidity >=0.4.22 <0.9.0;\n\nlibrary Utils {\n    function etherToWei(uint sumInEth) public pure returns(uint) {\n        return sumInEth * 1 ether; // converts to Wei from Eth, ether represents wei actually. \n    }\n\n    function minutesToSeconds(uint timeInMin) public pure returns(uint) {\n        return timeInMin * 1 minutes; // converts to seconds. \n    }\n}",
  "sourcePath": "/Users/casperyonel/Documents/Projects/crowdfunding-project/contracts/Utils.sol",
  "compiler": {
    "name": "solc",
    "version": "0.4.25+commit.59dbf8f1.Emscripten.clang"
  },
  "schemaVersion": "2.0.2",
  "updatedAt": "2021-12-08T21:40:26.165Z"
}